{
  "contractName": "GamblingPool",
  "abi": [
    {
      "inputs": [],
      "stateMutability": "payable",
      "type": "constructor",
      "payable": true
    },
    {
      "inputs": [],
      "name": "checkIfOpen",
      "outputs": [
        {
          "internalType": "bool",
          "name": "_isOpen",
          "type": "bool"
        }
      ],
      "stateMutability": "view",
      "type": "function",
      "constant": true
    },
    {
      "inputs": [],
      "name": "getDeadline",
      "outputs": [
        {
          "internalType": "uint256",
          "name": "_deadline",
          "type": "uint256"
        }
      ],
      "stateMutability": "view",
      "type": "function",
      "constant": true
    },
    {
      "inputs": [],
      "name": "getPlayers",
      "outputs": [
        {
          "components": [
            {
              "internalType": "address",
              "name": "wallet",
              "type": "address"
            },
            {
              "internalType": "uint256",
              "name": "betSize",
              "type": "uint256"
            },
            {
              "internalType": "string",
              "name": "name",
              "type": "string"
            }
          ],
          "internalType": "struct Players.Player[]",
          "name": "_players",
          "type": "tuple[]"
        }
      ],
      "stateMutability": "view",
      "type": "function",
      "constant": true
    },
    {
      "inputs": [],
      "name": "getPoolSize",
      "outputs": [
        {
          "internalType": "uint256",
          "name": "_poolSize",
          "type": "uint256"
        }
      ],
      "stateMutability": "view",
      "type": "function",
      "constant": true
    },
    {
      "inputs": [
        {
          "internalType": "string",
          "name": "_name",
          "type": "string"
        }
      ],
      "name": "placeBet",
      "outputs": [],
      "stateMutability": "payable",
      "type": "function",
      "payable": true
    }
  ],
  "bytecode": "0x6080604052600060025561001761001c60201b60201c565b6100c1565b61ea604261002a919061006b565b600081905550565b6000819050919050565b7f4e487b7100000000000000000000000000000000000000000000000000000000600052601160045260246000fd5b600061007682610032565b915061008183610032565b9250827fffffffffffffffffffffffffffffffffffffffffffffffffffffffffffffffff038211156100b6576100b561003c565b5b828201905092915050565b610d94806100d06000396000f3fe60806040526004361061004a5760003560e01c806323845e4b1461004f5780635f8d96de1461007a57806368cc9fd9146100a55780638b5b9ccc146100d057806397bfeb88146100fb575b600080fd5b34801561005b57600080fd5b50610064610117565b60405161007191906106c5565b60405180910390f35b34801561008657600080fd5b5061008f610121565b60405161009c91906106c5565b60405180910390f35b3480156100b157600080fd5b506100ba610134565b6040516100c791906106fb565b60405180910390f35b3480156100dc57600080fd5b506100e5610140565b6040516100f29190610911565b60405180910390f35b61011560048036038101906101109190610a7c565b610291565b005b6000600254905090565b600061012b610134565b50600054905090565b60008054421115905090565b60606001805480602002602001604051908101604052809291908181526020016000905b8282101561028857838290600052602060002090600302016040518060600160405290816000820160009054906101000a900473ffffffffffffffffffffffffffffffffffffffff1673ffffffffffffffffffffffffffffffffffffffff1673ffffffffffffffffffffffffffffffffffffffff168152602001600182015481526020016002820180546101f790610af4565b80601f016020809104026020016040519081016040528092919081815260200182805461022390610af4565b80156102705780601f1061024557610100808354040283529160200191610270565b820191906000526020600020905b81548152906001019060200180831161025357829003601f168201915b50505050508152505081526020019060010190610164565b50505050905090565b610299610134565b1561030a57600034116102e1576040517f08c379a00000000000000000000000000000000000000000000000000000000081526004016102d890610b83565b60405180910390fd5b6102ec33348361033b565b34600260008282546102fe9190610bd2565b92505081905550610338565b60006002541461032657600061031e61040c565b905050610337565b61032e6104bb565b6103366104cb565b5b5b50565b600160405180606001604052808573ffffffffffffffffffffffffffffffffffffffff16815260200184815260200183815250908060018154018082558091505060019003906000526020600020906003020160009091909190915060008201518160000160006101000a81548173ffffffffffffffffffffffffffffffffffffffff021916908373ffffffffffffffffffffffffffffffffffffffff160217905550602082015181600101556040820151816002019080519060200190610404929190610518565b505050505050565b61041461059e565b60006002546104216104e1565b61042b9190610c57565b90506000610437610140565b90506000805b82518110156104b35782818151811061045957610458610c88565b5b602002602001015160200151826104709190610bd2565b9150818410156104a05782818151811061048d5761048c610c88565b5b60200260200101519450505050506104b8565b80806104ab90610cb7565b91505061043d565b505050505b90565b600160006104c991906105d5565b565b61ea60426104d99190610bd2565b600081905550565b600044426002546040516020016104fa93929190610d21565b6040516020818303038152906040528051906020012060001c905090565b82805461052490610af4565b90600052602060002090601f016020900481019282610546576000855561058d565b82601f1061055f57805160ff191683800117855561058d565b8280016001018555821561058d579182015b8281111561058c578251825591602001919060010190610571565b5b50905061059a91906105f9565b5090565b6040518060600160405280600073ffffffffffffffffffffffffffffffffffffffff16815260200160008152602001606081525090565b50805460008255600302906000526020600020908101906105f69190610616565b50565b5b808211156106125760008160009055506001016105fa565b5090565b5b8082111561066857600080820160006101000a81549073ffffffffffffffffffffffffffffffffffffffff0219169055600182016000905560028201600061065f919061066c565b50600301610617565b5090565b50805461067890610af4565b6000825580601f1061068a57506106a9565b601f0160209004906000526020600020908101906106a891906105f9565b5b50565b6000819050919050565b6106bf816106ac565b82525050565b60006020820190506106da60008301846106b6565b92915050565b60008115159050919050565b6106f5816106e0565b82525050565b600060208201905061071060008301846106ec565b92915050565b600081519050919050565b600082825260208201905092915050565b6000819050602082019050919050565b600073ffffffffffffffffffffffffffffffffffffffff82169050919050565b600061076d82610742565b9050919050565b61077d81610762565b82525050565b61078c816106ac565b82525050565b600081519050919050565b600082825260208201905092915050565b60005b838110156107cc5780820151818401526020810190506107b1565b838111156107db576000848401525b50505050565b6000601f19601f8301169050919050565b60006107fd82610792565b610807818561079d565b93506108178185602086016107ae565b610820816107e1565b840191505092915050565b60006060830160008301516108436000860182610774565b5060208301516108566020860182610783565b506040830151848203604086015261086e82826107f2565b9150508091505092915050565b6000610887838361082b565b905092915050565b6000602082019050919050565b60006108a782610716565b6108b18185610721565b9350836020820285016108c385610732565b8060005b858110156108ff57848403895281516108e0858261087b565b94506108eb8361088f565b925060208a019950506001810190506108c7565b50829750879550505050505092915050565b6000602082019050818103600083015261092b818461089c565b905092915050565b6000604051905090565b600080fd5b600080fd5b600080fd5b600080fd5b7f4e487b7100000000000000000000000000000000000000000000000000000000600052604160045260246000fd5b610989826107e1565b810181811067ffffffffffffffff821117156109a8576109a7610951565b5b80604052505050565b60006109bb610933565b90506109c78282610980565b919050565b600067ffffffffffffffff8211156109e7576109e6610951565b5b6109f0826107e1565b9050602081019050919050565b82818337600083830152505050565b6000610a1f610a1a846109cc565b6109b1565b905082815260208101848484011115610a3b57610a3a61094c565b5b610a468482856109fd565b509392505050565b600082601f830112610a6357610a62610947565b5b8135610a73848260208601610a0c565b91505092915050565b600060208284031215610a9257610a9161093d565b5b600082013567ffffffffffffffff811115610ab057610aaf610942565b5b610abc84828501610a4e565b91505092915050565b7f4e487b7100000000000000000000000000000000000000000000000000000000600052602260045260246000fd5b60006002820490506001821680610b0c57607f821691505b60208210811415610b2057610b1f610ac5565b5b50919050565b600082825260208201905092915050565b7f6265742073697a652063616e206e6f7420626520657175616c20746f20300000600082015250565b6000610b6d601e83610b26565b9150610b7882610b37565b602082019050919050565b60006020820190508181036000830152610b9c81610b60565b9050919050565b7f4e487b7100000000000000000000000000000000000000000000000000000000600052601160045260246000fd5b6000610bdd826106ac565b9150610be8836106ac565b9250827fffffffffffffffffffffffffffffffffffffffffffffffffffffffffffffffff03821115610c1d57610c1c610ba3565b5b828201905092915050565b7f4e487b7100000000000000000000000000000000000000000000000000000000600052601260045260246000fd5b6000610c62826106ac565b9150610c6d836106ac565b925082610c7d57610c7c610c28565b5b828206905092915050565b7f4e487b7100000000000000000000000000000000000000000000000000000000600052603260045260246000fd5b6000610cc2826106ac565b91507fffffffffffffffffffffffffffffffffffffffffffffffffffffffffffffffff821415610cf557610cf4610ba3565b5b600182019050919050565b6000819050919050565b610d1b610d16826106ac565b610d00565b82525050565b6000610d2d8286610d0a565b602082019150610d3d8285610d0a565b602082019150610d4d8284610d0a565b60208201915081905094935050505056fea264697066735822122050a66c5a514ff61c68dca1f1e5ac8f3d9c4f11a63eb003f6db9a2bdc14e8b98264736f6c634300080a0033",
  "immutableReferences": {},
  "source": "// SPDX-License-Identifier: MIT\npragma solidity >=0.8 <0.9.0;\n\nimport \"./Players.sol\";\nimport \"./Timed.sol\";\n\n\ncontract GamblingPool is Timed, Players {\n  uint private poolSize = 0;\n\n  modifier checkStatus {\n    if(checkIfOpen()) {\n      _; // if open continue \n    } else {\n      if (poolSize != 0) {\n        // calculate winner\n        Player memory winner = calculateWinner();\n      } else {\n        // restart the game\n        resetPlayers();\n        setDeadline();\n      }\n    }\n  }\n\n  constructor() payable {\n    // require(msg.value > 0, 'can start only by betting');\n    setDeadline();\n  }\n\n  function getPoolSize() public view returns(uint _poolSize) {\n    return poolSize;\n  }\n\n  function placeBet(string memory _name) public payable checkStatus {\n    require(msg.value > 0, \"bet size can not be equal to 0\");\n    // check if open\n    addPlayer(msg.sender, msg.value, _name);\n    poolSize += msg.value;\n  }\n\n  function calculateWinner() private view returns(Player memory winner) {\n    uint winningBallot      = getRandom() % poolSize;\n    Player[] memory players = getPlayers();\n\n    uint bufferPool = 0;\n    for(uint i = 0; i < players.length; i++) {\n      bufferPool += players[i].betSize;\n      if(winningBallot < bufferPool) {\n        return players[i];\n      }\n    }\n  }\n\n  function getRandom() private view returns(uint) {\n    return uint(keccak256(abi.encodePacked(block.difficulty, block.timestamp, poolSize)));\n  }\n\n  function awardWinner(Player memory _winner) private {\n    if(payable(_winner.wallet).send(poolSize)) {\n      poolSize = 0;\n    }\n  }\n}\n",
  "sourcePath": "/home/linuxos/Work/GamblingSmartContract/backend/contracts/GamblingPool.sol",
  "compiler": {
    "name": "solc",
    "version": "0.8.10+commit.fc410830.Emscripten.clang"
  },
  "schemaVersion": "3.4.1",
  "updatedAt": "2021-12-12T17:06:16.590Z",
  "networkType": "ethereum",
  "devdoc": {
    "kind": "dev",
    "methods": {},
    "version": 1
  },
  "userdoc": {
    "kind": "user",
    "methods": {},
    "version": 1
  }
}