{
  "contractName": "GamblingPool",
  "abi": [
    {
      "inputs": [],
      "stateMutability": "payable",
      "type": "constructor"
    },
    {
      "inputs": [],
      "name": "deadline",
      "outputs": [
        {
          "internalType": "uint256",
          "name": "",
          "type": "uint256"
        }
      ],
      "stateMutability": "view",
      "type": "function"
    },
    {
      "inputs": [],
      "name": "getPlayers",
      "outputs": [
        {
          "components": [
            {
              "internalType": "address",
              "name": "wallet",
              "type": "address"
            },
            {
              "internalType": "string",
              "name": "name",
              "type": "string"
            },
            {
              "internalType": "uint256",
              "name": "betSize",
              "type": "uint256"
            }
          ],
          "internalType": "struct Players.Player[]",
          "name": "_players",
          "type": "tuple[]"
        }
      ],
      "stateMutability": "view",
      "type": "function"
    },
    {
      "inputs": [
        {
          "internalType": "string",
          "name": "_name",
          "type": "string"
        }
      ],
      "name": "placeBet",
      "outputs": [],
      "stateMutability": "payable",
      "type": "function"
    }
  ],
  "bytecode": "0x608060405260006001556000341161001657600080fd5b61ea60426100249190610068565b6001819055506100be565b6000819050919050565b7f4e487b7100000000000000000000000000000000000000000000000000000000600052601160045260246000fd5b60006100738261002f565b915061007e8361002f565b9250827fffffffffffffffffffffffffffffffffffffffffffffffffffffffffffffffff038211156100b3576100b2610039565b5b828201905092915050565b61081a806100cd6000396000f3fe6080604052600436106100345760003560e01c806329dcb0cf146100395780638b5b9ccc1461006457806397bfeb881461008f575b600080fd5b34801561004557600080fd5b5061004e6100ab565b60405161005b91906103b9565b60405180910390f35b34801561007057600080fd5b506100796100b1565b60405161008691906105cf565b60405180910390f35b6100a960048036038101906100a4919061073a565b610202565b005b60015481565b60606000805480602002602001604051908101604052809291908181526020016000905b828210156101f957838290600052602060002090600302016040518060600160405290816000820160009054906101000a900473ffffffffffffffffffffffffffffffffffffffff1673ffffffffffffffffffffffffffffffffffffffff1673ffffffffffffffffffffffffffffffffffffffff16815260200160018201805461015e906107b2565b80601f016020809104026020016040519081016040528092919081815260200182805461018a906107b2565b80156101d75780601f106101ac576101008083540402835291602001916101d7565b820191906000526020600020905b8154815290600101906020018083116101ba57829003601f168201915b50505050508152602001600282015481525050815260200190600101906100d5565b50505050905090565b60015442111561021157600080fd5b6000341161021e57600080fd5b61022933823461022c565b50565b600060405180606001604052808573ffffffffffffffffffffffffffffffffffffffff16815260200184815260200183815250908060018154018082558091505060019003906000526020600020906003020160009091909190915060008201518160000160006101000a81548173ffffffffffffffffffffffffffffffffffffffff021916908373ffffffffffffffffffffffffffffffffffffffff16021790555060208201518160010190805190602001906102eb9291906102fd565b50604082015181600201555050505050565b828054610309906107b2565b90600052602060002090601f01602090048101928261032b5760008555610372565b82601f1061034457805160ff1916838001178555610372565b82800160010185558215610372579182015b82811115610371578251825591602001919060010190610356565b5b50905061037f9190610383565b5090565b5b8082111561039c576000816000905550600101610384565b5090565b6000819050919050565b6103b3816103a0565b82525050565b60006020820190506103ce60008301846103aa565b92915050565b600081519050919050565b600082825260208201905092915050565b6000819050602082019050919050565b600073ffffffffffffffffffffffffffffffffffffffff82169050919050565b600061042b82610400565b9050919050565b61043b81610420565b82525050565b600081519050919050565b600082825260208201905092915050565b60005b8381101561047b578082015181840152602081019050610460565b8381111561048a576000848401525b50505050565b6000601f19601f8301169050919050565b60006104ac82610441565b6104b6818561044c565b93506104c681856020860161045d565b6104cf81610490565b840191505092915050565b6104e3816103a0565b82525050565b60006060830160008301516105016000860182610432565b506020830151848203602086015261051982826104a1565b915050604083015161052e60408601826104da565b508091505092915050565b600061054583836104e9565b905092915050565b6000602082019050919050565b6000610565826103d4565b61056f81856103df565b935083602082028501610581856103f0565b8060005b858110156105bd578484038952815161059e8582610539565b94506105a98361054d565b925060208a01995050600181019050610585565b50829750879550505050505092915050565b600060208201905081810360008301526105e9818461055a565b905092915050565b6000604051905090565b600080fd5b600080fd5b600080fd5b600080fd5b7f4e487b7100000000000000000000000000000000000000000000000000000000600052604160045260246000fd5b61064782610490565b810181811067ffffffffffffffff821117156106665761066561060f565b5b80604052505050565b60006106796105f1565b9050610685828261063e565b919050565b600067ffffffffffffffff8211156106a5576106a461060f565b5b6106ae82610490565b9050602081019050919050565b82818337600083830152505050565b60006106dd6106d88461068a565b61066f565b9050828152602081018484840111156106f9576106f861060a565b5b6107048482856106bb565b509392505050565b600082601f83011261072157610720610605565b5b81356107318482602086016106ca565b91505092915050565b6000602082840312156107505761074f6105fb565b5b600082013567ffffffffffffffff81111561076e5761076d610600565b5b61077a8482850161070c565b91505092915050565b7f4e487b7100000000000000000000000000000000000000000000000000000000600052602260045260246000fd5b600060028204905060018216806107ca57607f821691505b602082108114156107de576107dd610783565b5b5091905056fea26469706673582212204aed92fec4e8c03525bb5896234d55b1bc58c36d424058cc209d595a9324ca3f64736f6c634300080a0033",
  "immutableReferences": {},
  "source": "pragma solidity >=0.8 <0.9.0;\nimport \"./Players.sol\";\nimport \"./Timed.sol\";\n\ncontract GamblingPool is Players, Timed {\n\n  modifier WhileOpen {\n    require(block.timestamp >= deadline);\n    _;\n  }\n\n  modifier WhileClosed {\n    require(block.timestamp < deadline);\n    _;\n  }\n\n  constructor() payable {\n    require(msg.value > 0);\n    deadline = block.timestamp + 60*1000;\n  }\n\n  function placeBet(string memory _name) payable onlyWhileOpen public {\n    require(msg.value > 0);\n    addPlayer(msg.sender, _name, msg.value);\n  }\n}",
  "sourcePath": "/home/linuxos/Work/GamblingSmartContract/backend/contracts/GamblingPool.sol",
  "compiler": {
    "name": "solc",
    "version": "0.8.10+commit.fc410830.Emscripten.clang"
  },
  "schemaVersion": "3.4.1",
  "updatedAt": "2021-12-11T16:27:30.135Z",
  "devdoc": {
    "kind": "dev",
    "methods": {},
    "version": 1
  },
  "userdoc": {
    "kind": "user",
    "methods": {},
    "version": 1
  }
}