{
  "contractName": "Players",
  "abi": [
    {
      "inputs": [],
      "name": "getPlayers",
      "outputs": [
        {
          "components": [
            {
              "internalType": "address",
              "name": "wallet",
              "type": "address"
            },
            {
              "internalType": "string",
              "name": "name",
              "type": "string"
            },
            {
              "internalType": "uint256",
              "name": "betSize",
              "type": "uint256"
            }
          ],
          "internalType": "struct Players.Player[]",
          "name": "_players",
          "type": "tuple[]"
        }
      ],
      "stateMutability": "view",
      "type": "function"
    }
  ],
  "bytecode": "0x608060405234801561001057600080fd5b5061045d806100206000396000f3fe608060405234801561001057600080fd5b506004361061002b5760003560e01c80638b5b9ccc14610030575b600080fd5b61003861004e565b60405161004591906103a4565b60405180910390f35b60606000805480602002602001604051908101604052809291908181526020016000905b8282101561019657838290600052602060002090600302016040518060600160405290816000820160009054906101000a900473ffffffffffffffffffffffffffffffffffffffff1673ffffffffffffffffffffffffffffffffffffffff1673ffffffffffffffffffffffffffffffffffffffff1681526020016001820180546100fb906103f5565b80601f0160208091040260200160405190810160405280929190818152602001828054610127906103f5565b80156101745780601f1061014957610100808354040283529160200191610174565b820191906000526020600020905b81548152906001019060200180831161015757829003601f168201915b5050505050815260200160028201548152505081526020019060010190610072565b50505050905090565b600081519050919050565b600082825260208201905092915050565b6000819050602082019050919050565b600073ffffffffffffffffffffffffffffffffffffffff82169050919050565b60006101f6826101cb565b9050919050565b610206816101eb565b82525050565b600081519050919050565b600082825260208201905092915050565b60005b8381101561024657808201518184015260208101905061022b565b83811115610255576000848401525b50505050565b6000601f19601f8301169050919050565b60006102778261020c565b6102818185610217565b9350610291818560208601610228565b61029a8161025b565b840191505092915050565b6000819050919050565b6102b8816102a5565b82525050565b60006060830160008301516102d660008601826101fd565b50602083015184820360208601526102ee828261026c565b915050604083015161030360408601826102af565b508091505092915050565b600061031a83836102be565b905092915050565b6000602082019050919050565b600061033a8261019f565b61034481856101aa565b935083602082028501610356856101bb565b8060005b858110156103925784840389528151610373858261030e565b945061037e83610322565b925060208a0199505060018101905061035a565b50829750879550505050505092915050565b600060208201905081810360008301526103be818461032f565b905092915050565b7f4e487b7100000000000000000000000000000000000000000000000000000000600052602260045260246000fd5b6000600282049050600182168061040d57607f821691505b60208210811415610421576104206103c6565b5b5091905056fea26469706673582212204db96b9487728ddad463c1456de90beb12a372297327e1c69eb5f4e960fcd3f864736f6c634300080a0033",
  "immutableReferences": {},
  "source": "pragma solidity >=0.8 <0.9.0;\nimport \"./GamblingPool.sol\";\n\n\ncontract Players {\n  struct Player {\n    address wallet;\n    string  name;\n    uint    betSize;\n  }\n  \n  Player[] private players;\n\n  function getPlayers() public view returns (Player[] memory _players) {\n    return players;\n  }\n\n  function addPlayer(address _wallet, string memory _name, uint _betSize) internal  {\n    players.push(Player(_wallet, _name, _betSize));\n  }\n}",
  "sourcePath": "/home/linuxos/Work/GamblingSmartContract/backend/contracts/Players.sol",
  "compiler": {
    "name": "solc",
    "version": "0.8.10+commit.fc410830.Emscripten.clang"
  },
  "schemaVersion": "3.4.1",
  "updatedAt": "2021-12-11T16:27:30.141Z",
  "devdoc": {
    "kind": "dev",
    "methods": {},
    "version": 1
  },
  "userdoc": {
    "kind": "user",
    "methods": {},
    "version": 1
  }
}