{
  "contractName": "Players",
  "abi": [
    {
      "inputs": [],
      "name": "getPlayers",
      "outputs": [
        {
          "components": [
            {
              "internalType": "address",
              "name": "wallet",
              "type": "address"
            },
            {
              "internalType": "uint256",
              "name": "betSize",
              "type": "uint256"
            },
            {
              "internalType": "string",
              "name": "name",
              "type": "string"
            }
          ],
          "internalType": "struct Players.Player[]",
          "name": "_players",
          "type": "tuple[]"
        }
      ],
      "stateMutability": "view",
      "type": "function"
    }
  ],
  "bytecode": "0x608060405234801561001057600080fd5b5061045d806100206000396000f3fe608060405234801561001057600080fd5b506004361061002b5760003560e01c80638b5b9ccc14610030575b600080fd5b61003861004e565b60405161004591906103a4565b60405180910390f35b60606000805480602002602001604051908101604052809291908181526020016000905b8282101561019657838290600052602060002090600302016040518060600160405290816000820160009054906101000a900473ffffffffffffffffffffffffffffffffffffffff1673ffffffffffffffffffffffffffffffffffffffff1673ffffffffffffffffffffffffffffffffffffffff16815260200160018201548152602001600282018054610105906103f5565b80601f0160208091040260200160405190810160405280929190818152602001828054610131906103f5565b801561017e5780601f106101535761010080835404028352916020019161017e565b820191906000526020600020905b81548152906001019060200180831161016157829003601f168201915b50505050508152505081526020019060010190610072565b50505050905090565b600081519050919050565b600082825260208201905092915050565b6000819050602082019050919050565b600073ffffffffffffffffffffffffffffffffffffffff82169050919050565b60006101f6826101cb565b9050919050565b610206816101eb565b82525050565b6000819050919050565b61021f8161020c565b82525050565b600081519050919050565b600082825260208201905092915050565b60005b8381101561025f578082015181840152602081019050610244565b8381111561026e576000848401525b50505050565b6000601f19601f8301169050919050565b600061029082610225565b61029a8185610230565b93506102aa818560208601610241565b6102b381610274565b840191505092915050565b60006060830160008301516102d660008601826101fd565b5060208301516102e96020860182610216565b50604083015184820360408601526103018282610285565b9150508091505092915050565b600061031a83836102be565b905092915050565b6000602082019050919050565b600061033a8261019f565b61034481856101aa565b935083602082028501610356856101bb565b8060005b858110156103925784840389528151610373858261030e565b945061037e83610322565b925060208a0199505060018101905061035a565b50829750879550505050505092915050565b600060208201905081810360008301526103be818461032f565b905092915050565b7f4e487b7100000000000000000000000000000000000000000000000000000000600052602260045260246000fd5b6000600282049050600182168061040d57607f821691505b60208210811415610421576104206103c6565b5b5091905056fea26469706673582212203bdda5b77903234d30b4543596fe7f7a4d3a227a4284ca12b9a5cf7c9224e38964736f6c634300080a0033",
  "immutableReferences": {},
  "source": "// SPDX-License-Identifier: MIT\npragma solidity >=0.8 <0.9.0;\n\n\ncontract Players {\n  struct Player {\n    address wallet;\n    uint    betSize;\n    string  name;\n  }\n\n  Player[] players;\n\n  function getPlayers() public view returns(Player[] memory _players) {\n    return players;\n  }\n\n  function addPlayer(address _wallet, uint _betSize, string memory _name) internal {\n    players.push(Player(_wallet, _betSize, _name));\n  }\n\n  function resetPlayers() internal {\n    delete players;\n  }\n\n}",
  "sourcePath": "/home/linuxos/Work/GamblingSmartContract/backend/contracts/Players.sol",
  "compiler": {
    "name": "solc",
    "version": "0.8.10+commit.fc410830.Emscripten.clang"
  },
  "schemaVersion": "3.4.1",
  "updatedAt": "2021-12-11T18:46:48.049Z",
  "devdoc": {
    "kind": "dev",
    "methods": {},
    "version": 1
  },
  "userdoc": {
    "kind": "user",
    "methods": {},
    "version": 1
  }
}