{
  "contractName": "Timed",
  "abi": [
    {
      "inputs": [],
      "name": "getDeadline",
      "outputs": [
        {
          "internalType": "uint256",
          "name": "_deadline",
          "type": "uint256"
        }
      ],
      "stateMutability": "view",
      "type": "function"
    },
    {
      "inputs": [],
      "name": "checkIfOpen",
      "outputs": [
        {
          "internalType": "bool",
          "name": "_isOpen",
          "type": "bool"
        }
      ],
      "stateMutability": "view",
      "type": "function"
    }
  ],
  "bytecode": "0x608060405234801561001057600080fd5b50610120806100206000396000f3fe6080604052348015600f57600080fd5b506004361060325760003560e01c80635f8d96de14603757806368cc9fd9146051575b600080fd5b603d606b565b60405160489190609f565b60405180910390f35b6057607c565b6040516062919060d1565b60405180910390f35b60006073607c565b50600054905090565b60008054421115905090565b6000819050919050565b6099816088565b82525050565b600060208201905060b260008301846092565b92915050565b60008115159050919050565b60cb8160b8565b82525050565b600060208201905060e4600083018460c4565b9291505056fea26469706673582212204e6fab62f14f832c62c12626fb843e50f7ccd4dfad3dd737cdc4a035fd9c7ca464736f6c634300080a0033",
  "immutableReferences": {},
  "source": "// SPDX-License-Identifier: MIT\npragma solidity >=0.8 <0.9.0;\n\n\ncontract Timed {\n  uint private deadline;\n\n  function setDeadline() internal {\n    deadline = block.timestamp + 60*1000; //timer for 1 minute\n  }\n\n  function getDeadline() public view returns(uint _deadline) {\n    checkIfOpen();\n    return deadline;    \n  }\n\n  function checkIfOpen() public view returns (bool _isOpen) {\n    return block.timestamp <= deadline;\n  }\n}\n",
  "sourcePath": "/home/linuxos/Work/GamblingSmartContract/backend/contracts/Timed.sol",
  "compiler": {
    "name": "solc",
    "version": "0.8.10+commit.fc410830.Emscripten.clang"
  },
  "schemaVersion": "3.4.1",
  "updatedAt": "2021-12-11T20:11:18.525Z",
  "devdoc": {
    "kind": "dev",
    "methods": {},
    "version": 1
  },
  "userdoc": {
    "kind": "user",
    "methods": {},
    "version": 1
  }
}