{
  "contractName": "Timed",
  "abi": [
    {
      "inputs": [],
      "name": "deadline",
      "outputs": [
        {
          "internalType": "uint256",
          "name": "",
          "type": "uint256"
        }
      ],
      "stateMutability": "view",
      "type": "function"
    }
  ],
  "bytecode": "0x60806040526000805534801561001457600080fd5b5060b3806100236000396000f3fe6080604052348015600f57600080fd5b506004361060285760003560e01c806329dcb0cf14602d575b600080fd5b60336047565b604051603e91906064565b60405180910390f35b60005481565b6000819050919050565b605e81604d565b82525050565b6000602082019050607760008301846057565b9291505056fea2646970667358221220475e8b822da2e4238dff5bb7c1eb02c843f54c49f63c3a96f36ef61713db425164736f6c634300080a0033",
  "immutableReferences": {},
  "source": "pragma solidity >=0.8 <0.9.0;\n\n\ncontract Timed {\n  uint public deadline = 0;\n\n  modifier onlyWhileOpen {\n    require(block.timestamp <= deadline);\n    _;\n  }\n\n  modifier onlyWhileClosed {\n    require(block.timestamp > deadline);\n    _;\n  }\n\n}\n",
  "sourcePath": "/home/linuxos/Work/GamblingSmartContract/backend/contracts/Timed.sol",
  "compiler": {
    "name": "solc",
    "version": "0.8.10+commit.fc410830.Emscripten.clang"
  },
  "schemaVersion": "3.4.1",
  "updatedAt": "2021-12-11T16:27:30.143Z",
  "devdoc": {
    "kind": "dev",
    "methods": {},
    "version": 1
  },
  "userdoc": {
    "kind": "user",
    "methods": {},
    "version": 1
  }
}